{
  "_format": "hh-sol-artifact-1",
  "contractName": "Storage",
  "sourceName": "contracts/Storage.sol",
  "abi": [
    {
      "inputs": [],
      "name": "getName",
      "outputs": [
        {
          "internalType": "string",
          "name": "",
          "type": "string"
        }
      ],
      "stateMutability": "view",
      "type": "function"
    },
    {
      "inputs": [],
      "name": "getNumber",
      "outputs": [
        {
          "internalType": "uint256",
          "name": "",
          "type": "uint256"
        }
      ],
      "stateMutability": "view",
      "type": "function"
    },
    {
      "inputs": [
        {
          "internalType": "string",
          "name": "_name",
          "type": "string"
        }
      ],
      "name": "setName",
      "outputs": [],
      "stateMutability": "nonpayable",
      "type": "function"
    },
    {
      "inputs": [
        {
          "internalType": "uint256",
          "name": "_number",
          "type": "uint256"
        }
      ],
      "name": "setNumber",
      "outputs": [],
      "stateMutability": "nonpayable",
      "type": "function"
    }
  ],
  "bytecode": "0x608060405234801561001057600080fd5b50610570806100206000396000f3fe608060405234801561001057600080fd5b506004361061004c5760003560e01c806317d7de7c146100515780633fb5c1cb1461006f578063c47f00271461008b578063f2c9ecd8146100a7575b600080fd5b6100596100c5565b6040516100669190610356565b60405180910390f35b610089600480360381019061008491906102e5565b610157565b005b6100a560048036038101906100a091906102a4565b610161565b005b6100af61017b565b6040516100bc9190610378565b60405180910390f35b6060600180546100d490610451565b80601f016020809104026020016040519081016040528092919081815260200182805461010090610451565b801561014d5780601f106101225761010080835404028352916020019161014d565b820191906000526020600020905b81548152906001019060200180831161013057829003601f168201915b5050505050905090565b8060008190555050565b8060019080519060200190610177929190610184565b5050565b60008054905090565b82805461019090610451565b90600052602060002090601f0160209004810192826101b257600085556101f9565b82601f106101cb57805160ff19168380011785556101f9565b828001600101855582156101f9579182015b828111156101f85782518255916020019190600101906101dd565b5b509050610206919061020a565b5090565b5b8082111561022357600081600090555060010161020b565b5090565b600061023a610235846103b8565b610393565b90508281526020810184848401111561025257600080fd5b61025d84828561040f565b509392505050565b600082601f83011261027657600080fd5b8135610286848260208601610227565b91505092915050565b60008135905061029e81610523565b92915050565b6000602082840312156102b657600080fd5b600082013567ffffffffffffffff8111156102d057600080fd5b6102dc84828501610265565b91505092915050565b6000602082840312156102f757600080fd5b60006103058482850161028f565b91505092915050565b6000610319826103e9565b61032381856103f4565b935061033381856020860161041e565b61033c81610512565b840191505092915050565b61035081610405565b82525050565b60006020820190508181036000830152610370818461030e565b905092915050565b600060208201905061038d6000830184610347565b92915050565b600061039d6103ae565b90506103a98282610483565b919050565b6000604051905090565b600067ffffffffffffffff8211156103d3576103d26104e3565b5b6103dc82610512565b9050602081019050919050565b600081519050919050565b600082825260208201905092915050565b6000819050919050565b82818337600083830152505050565b60005b8381101561043c578082015181840152602081019050610421565b8381111561044b576000848401525b50505050565b6000600282049050600182168061046957607f821691505b6020821081141561047d5761047c6104b4565b5b50919050565b61048c82610512565b810181811067ffffffffffffffff821117156104ab576104aa6104e3565b5b80604052505050565b7f4e487b7100000000000000000000000000000000000000000000000000000000600052602260045260246000fd5b7f4e487b7100000000000000000000000000000000000000000000000000000000600052604160045260246000fd5b6000601f19601f8301169050919050565b61052c81610405565b811461053757600080fd5b5056fea26469706673582212204e0c4e17f542053d131d659d0ac8684049230e988985cad386485dca67c59c1464736f6c63430008040033",
  "linkReferences": {},
  "deployedLinkReferences": {}
}